{
  "contractName": "IPFSStorage",
  "abi": [
    {
      "anonymous": false,
      "inputs": [
        {
          "indexed": true,
          "internalType": "address",
          "name": "key",
          "type": "address"
        }
      ],
      "name": "EntryDeleted",
      "type": "event"
    },
    {
      "anonymous": false,
      "inputs": [
        {
          "indexed": true,
          "internalType": "address",
          "name": "key",
          "type": "address"
        },
        {
          "indexed": false,
          "internalType": "bytes32",
          "name": "digest",
          "type": "bytes32"
        },
        {
          "indexed": false,
          "internalType": "uint8",
          "name": "hashFunction",
          "type": "uint8"
        },
        {
          "indexed": false,
          "internalType": "uint8",
          "name": "size",
          "type": "uint8"
        }
      ],
      "name": "EntrySet",
      "type": "event"
    },
    {
      "constant": false,
      "inputs": [
        {
          "internalType": "bytes32",
          "name": "_digest",
          "type": "bytes32"
        },
        {
          "internalType": "uint8",
          "name": "_hashFunction",
          "type": "uint8"
        },
        {
          "internalType": "uint8",
          "name": "_size",
          "type": "uint8"
        }
      ],
      "name": "setEntry",
      "outputs": [],
      "payable": false,
      "stateMutability": "nonpayable",
      "type": "function"
    },
    {
      "constant": false,
      "inputs": [],
      "name": "clearEntry",
      "outputs": [],
      "payable": false,
      "stateMutability": "nonpayable",
      "type": "function"
    },
    {
      "constant": true,
      "inputs": [
        {
          "internalType": "address",
          "name": "_address",
          "type": "address"
        }
      ],
      "name": "getEntry",
      "outputs": [
        {
          "internalType": "bytes32",
          "name": "digest",
          "type": "bytes32"
        },
        {
          "internalType": "uint8",
          "name": "hashfunction",
          "type": "uint8"
        },
        {
          "internalType": "uint8",
          "name": "size",
          "type": "uint8"
        }
      ],
      "payable": false,
      "stateMutability": "view",
      "type": "function"
    }
  ],
  "bytecode": "0x608060405234801561001057600080fd5b50610416806100206000396000f3fe608060405234801561001057600080fd5b50600436106100415760003560e01c80631d91bad8146100465780634aa31d1a146100505780637db6a4e414610098575b600080fd5b61004e61010a565b005b6100966004803603606081101561006657600080fd5b8101908080359060200190929190803560ff169060200190929190803560ff169060200190929190505050610211565b005b6100da600480360360208110156100ae57600080fd5b81019080803573ffffffffffffffffffffffffffffffffffffffff16906020019092919050505061033a565b604051808481526020018360ff1660ff1681526020018260ff1660ff168152602001935050505060405180910390f35b6000801b6000803373ffffffffffffffffffffffffffffffffffffffff1673ffffffffffffffffffffffffffffffffffffffff16815260200190815260200160002060000154141561015b57600080fd5b6000803373ffffffffffffffffffffffffffffffffffffffff1673ffffffffffffffffffffffffffffffffffffffff1681526020019081526020016000206000808201600090556001820160006101000a81549060ff02191690556001820160016101000a81549060ff021916905550503373ffffffffffffffffffffffffffffffffffffffff167f37094446b5b4f4420f3371942cfa215d42d75ca1721ea30e7711cd7b35c2d78b60405160405180910390a2565b6102196103b7565b60405180606001604052808581526020018460ff1681526020018360ff168152509050806000803373ffffffffffffffffffffffffffffffffffffffff1673ffffffffffffffffffffffffffffffffffffffff1681526020019081526020016000206000820151816000015560208201518160010160006101000a81548160ff021916908360ff16021790555060408201518160010160016101000a81548160ff021916908360ff1602179055509050503373ffffffffffffffffffffffffffffffffffffffff167f631aa1496c76170e1d345cbad46551b5ce9e00454bc5058a321afa3e4c69be8f858585604051808481526020018360ff1660ff1681526020018260ff1660ff168152602001935050505060405180910390a250505050565b6000806000806000808673ffffffffffffffffffffffffffffffffffffffff1673ffffffffffffffffffffffffffffffffffffffff168152602001908152602001600020905080600001548160010160009054906101000a900460ff168260010160019054906101000a900460ff16935093509350509193909250565b604051806060016040528060008019168152602001600060ff168152602001600060ff168152509056fea265627a7a723158200fb84f18b3203cdf811d16df419aee8e608b61333213b50f3ac460895f29102f64736f6c63430005100032",
  "source": "pragma solidity ^0.5.16;\n\n\n/**\n * @title IPFSStorage\n * @author Forest Fang (@saurfang)\n * @dev Stores IPFS (multihash) hash by address. A multihash entry is in the format\n * of <varint hash function code><varint digest size in bytes><hash function output>\n * See https://github.com/multiformats/multihash\n *\n * Currently IPFS hash is 34 bytes long with first two segments represented as a single byte (uint8)\n * The digest is 32 bytes long and can be stored using bytes32 efficiently.\n */\ncontract IPFSStorage {\n  struct Multihash {\n    bytes32 digest;\n    uint8 hashFunction;\n    uint8 size;\n  }\n\n  mapping (address => Multihash) private entries;\n\n  event EntrySet (\n    address indexed key,\n    bytes32 digest,\n    uint8 hashFunction,\n    uint8 size\n  );\n\n  event EntryDeleted (\n    address indexed key\n  );\n\n  /**\n   * @dev associate a multihash entry with the sender address\n   * @param _digest hash digest produced by hashing content using hash function\n   * @param _hashFunction hashFunction code for the hash function used\n   * @param _size length of the digest\n   */\n  function setEntry(bytes32 _digest, uint8 _hashFunction, uint8 _size)\n  public\n  {\n    Multihash memory entry = Multihash(_digest, _hashFunction, _size);\n    entries[msg.sender] = entry;\n    emit EntrySet(\n      msg.sender, \n      _digest, \n      _hashFunction, \n      _size\n    );\n  }\n\n  /**\n   * @dev deassociate any multihash entry with the sender address\n   */\n  function clearEntry()\n  public\n  {\n    require(entries[msg.sender].digest != 0);\n    delete entries[msg.sender];\n    emit EntryDeleted(msg.sender);\n  }\n\n  /**\n   * @dev retrieve multihash entry associated with an address\n   * @param _address address used as key\n   */\n  function getEntry(address _address)\n  public\n  view\n  returns(bytes32 digest, uint8 hashfunction, uint8 size)\n  {\n    Multihash storage entry = entries[_address];\n    return (entry.digest, entry.hashFunction, entry.size);\n  }\n}\n",
  "sourcePath": "/Users/eugeneluzgin/Blockchain/ipfs-multihash-on-solidity/contracts/IPFSStorage.sol",
  "compiler": {
    "name": "solc",
    "version": "0.5.16+commit.9c3226ce.Emscripten.clang"
  },
  "schemaVersion": "3.2.5",
  "updatedAt": "2020-10-11T15:29:08.755Z",
  "devdoc": {
    "author": "Forest Fang (@saurfang)",
    "details": "Stores IPFS (multihash) hash by address. A multihash entry is in the format of <varint hash function code><varint digest size in bytes><hash function output> See https://github.com/multiformats/multihash * Currently IPFS hash is 34 bytes long with first two segments represented as a single byte (uint8) The digest is 32 bytes long and can be stored using bytes32 efficiently.",
    "methods": {
      "clearEntry()": {
        "details": "deassociate any multihash entry with the sender address"
      },
      "getEntry(address)": {
        "details": "retrieve multihash entry associated with an address",
        "params": {
          "_address": "address used as key"
        }
      },
      "setEntry(bytes32,uint8,uint8)": {
        "details": "associate a multihash entry with the sender address",
        "params": {
          "_digest": "hash digest produced by hashing content using hash function",
          "_hashFunction": "hashFunction code for the hash function used",
          "_size": "length of the digest"
        }
      }
    },
    "title": "IPFSStorage"
  },
  "userdoc": {
    "methods": {}
  }
}